:100000000C9465000C948D000C948D000C948D0064
:100010000C948D000C948D000C948D000C948D002C
:100020000C948D000C948D000C948D000C94550153
:100030000C948D000C948D000C948D000C948D000C
:100040000C9464070C948D000C948D030C94D403D1
:100050000C948D000C948D000C948D000C948D00EC
:100060000C948D000C948D000000000024002700EB
:100070002A0000000000250028002B0000000000DE
:1000800023002600290004040404040404040202DA
:100090000202020203030303030301020408102007
:1000A0004080010204081020010204081020000012
:1000B0000007000201000003040600000000000029
:1000C0000000F801CA024B05C30211241FBECFEF86
:1000D000D8E0DEBFCDBF11E0A0E0B1E0E2E9F6E19B
:1000E00002C005900D92A639B107D9F712E0A6E932
:1000F000B1E001C01D92A339B107E1F710E0C8ECEF
:10010000D0E004C02297FE010E94E808C23CD1075B
:10011000C9F70E9455070C943C0B0C940000809387
:100120002E0108952091B601222329F08091C1016A
:100130008F5F8093C1018091C2019091C301281704
:1001400059F0903510F08DE101C08BE0890F80935C
:10015000C3012093C20103C09C5E9093C3019091A0
:10016000C301903A08F488C02091C4013091C501C0
:10017000369527953093C5012093C4018091C10124
:10018000853028F038603093C5012093C401905A1F
:100190009093C3011092C1018091BF01882309F49B
:1001A0005BC08091C6018F5F8093C6018C3008F4DC
:1001B00063C02091C4013091C501922F9F73A5E7C0
:1001C000B1E0FD0140E08081981729F04F5F319642
:1001D0004031C9F740E086E0369527958A95E1F7EA
:1001E00090E08C91281729F09F5F11969031C9F704
:1001F00090E0242F2295207F292B8091970188233E
:1002000071F42093C701822F84508B3140F01092FB
:10021000BF018091C8018F5F8093C80108958091CC
:100220009701E82FF0E0E856FE4F20838F5F809320
:100230009701909197018091C701981750F0109203
:10024000BF018091C9018F5F8093C90181E08093D4
:1002500096011092C60108958091C4019091C50144
:1002600088539B4049F481E08093BF011092C601FE
:10027000109297011092960108958091BE018823F3
:1002800029F481E08093BE011092BF01089580910E
:1002900074016091C0010E943A0880912F0160E0D2
:1002A0000E943A081092B70108951F920F920FB65C
:1002B0000F9211242F933F934F935F936F937F93EC
:1002C0008F939F93AF93BF93EF93FF9380912E01F2
:1002D0000E946D088093B6018091B7018823D1F107
:1002E0008091B8018F5F8093B801815099F5E091BA
:1002F000B9018091BA01E81760F00E94470180912E
:10030000BB019091BC0101969093BC018093BB010D
:1003100021C080912F019091BD0121E030E0092E94
:1003200002C0220F331F0A94E2F7F0E0E05DFE4FB7
:10033000608162239F5F9093BD010E943A08809183
:10034000BD01863038F01092BD018091B9018F5FF8
:100350008093B9018091B801883010F01092B801F3
:100360008091BE01882331F08091B701882311F478
:100370000E949200FF91EF91BF91AF919F918F9159
:100380007F916F915F914F913F912F910F900FBE91
:100390000F901F9018959C0140E050E060E874E8D1
:1003A0008EE190E00E94B0081092800089E0809376
:1003B00081003093890020938800EFE6F0E080818F
:1003C0008260808380912F0161E00E94E707809125
:1003D0002E0160E00E94E7078091740161E00E94B5
:1003E000E707809174016091C0010E943A08089566
:1003F00082E390E00E9489039093CB018093CA012D
:10040000089560E071E00E94FA0608950E944F0787
:1004100008956F927F928F929F92AF92BF92CF92E8
:10042000DF92EF92FF920F931F93DF93CF93CDB79D
:10043000DEB727970FB6F894DEBF0FBECDBF782E7C
:10044000692E8B01C82ED92EC6010E94010260912F
:10045000CA017091CB01C80142E350E020E030E0D6
:100460000E9464068091CA019091CB0161E071E025
:100470004AEC51E00E94DE0ABC01C6010E9414074A
:1004800085E290E00E948903FC0182E0E82EF12CD5
:10049000EE0EFF1E85E090E09183808300E010E087
:1004A000C701800F911F60E071E00E94FA06095FAA
:1004B0001F4F03321105A1F7F601F086E782AA2447
:1004C000BB244E010894811C911C19C087E692E060
:1004D000B7010E94F905F601078110850A0D1B1D61
:1004E000C401B7010E94FA06C801B4010E942D0799
:1004F000C4010E944F0787E090E0A80EB91E8091CA
:10050000CA019091CB0161E071E04AEC51E00E9498
:10051000DE0A7C010097D1F6872D962D27960FB61F
:10052000F894DEBF0FBECDBFCF91DF911F910F9129
:10053000FF90EF90DF90CF90BF90AF909F908F9003
:100540007F906F9008950F931F938C010E94440732
:10055000C8011F910F9108958130910551F46F5F8B
:100560007F4F81F48CEC91E063E071E00E94FA0629
:100570000895892B39F46F5F7F4F21F48CEC91E063
:100580000E944F07089580E090E06FEF7FEF0E9498
:10059000AC02089581E090E06FEF7FEF0E94AC0223
:1005A0000895CF92DF92EF92FF920F931F93DF9304
:1005B000CF93CDB7DEB76E970FB6F894DEBF0FBE00
:1005C000CDBF6E010894C11CD11CC6016CE071E066
:1005D0000E94FA068E01085F1F4FC801B6010E94F3
:1005E000440756E1E52EF12CEC0EFD1EC701B801C3
:1005F0000E940902C8010E944F078E01015F1F4F30
:10060000C801B7010E94A30287E692E0B8010E94E8
:100610003F06C8010E944F07C7010E940602C6019B
:100620000E944F076E960FB6F894DEBF0FBECDBF87
:10063000CF91DF911F910F91FF90EF90DF90CF90BE
:1006400008950F931F93DF93CF9300D00F92CDB7F0
:10065000DEB7182F092F61E00E94E707612F702F86
:1006600080E090E00F900F900F90CF91DF911F915D
:100670000F910895EF92FF920F931F9307E612E0F8
:10068000C80140E855E260E070E00E941D04C80126
:1006900062E271E00E94F90587E090E00E94210388
:1006A0006093D3017093D4018093D50106ED11E0DE
:1006B00086E090E00E9421036093D6017093D701F9
:1006C0008093D80163E0E62EF12CE00EF11E85E068
:1006D00090E00E9421036093D901F7017183828326
:1006E0000A5F1F4F84E090E00E9421036093DC01C9
:1006F000F8017183828382E00E948F0080EA9FE08C
:100700000E94CB010E943D011F910F91FF90EF903D
:1007100008950E94EC08089508951F920F920FB655
:100720000F9211242F933F934F938F939F93EF93A7
:10073000FF934091C60020911F02309120022F5F4D
:100740003F4F2F7330708091210290912202281721
:10075000390759F0E0911F02F0912002E152FE4F5B
:1007600040833093200220931F02FF91EF919F91CD
:100770008F914F913F912F910F900FBE0F901F902F
:100780001895E0917302F0917402E05CFF4F819143
:10079000919120813181821B930B8F739070892BF3
:1007A00011F00E948C0308951F920F920FB60F92C2
:1007B00011242F933F934F935F936F937F938F9366
:1007C0009F93AF93BF93EF93FF9320916302309178
:1007D000640280916502909166022817390731F40E
:1007E0008091C1008F7D8093C10016C0E0916502A9
:1007F000F0916602ED5DFD4F408180916502909120
:100800006602019660E470E00E949D089093660283
:10081000809365024093C600FF91EF91BF91AF9125
:100820009F918F917F916F915F914F913F912F9108
:100830000F900FBE0F901F901895AF92BF92DF924E
:10084000EF92FF920F931F93CF93DF93EC017A0106
:100850008B01DD24403081EE580780E0680780E09E
:10086000780711F0DD24D39491E0A92EB12CEC8906
:10087000FD89DD2069F0C5010E8C02C0880F991F2B
:100880000A94E2F7808360E079E08DE390E005C0B0
:10089000108260E874E88EE190E0A80197010E9460
:1008A000B00821503040404050405695479537950C
:1008B000279580E12030380720F0DD2011F0DD247D
:1008C000D6CFE889F9893083EA89FB892083EE89CC
:1008D000FF89408121E030E0C9010A8C02C0880F05
:1008E000991F0A94E2F7482B4083EE89FF894081E3
:1008F000C9010B8C02C0880F991F0A94E2F7482B9C
:100900004083EE89FF894081C9010C8C02C0880FA9
:10091000991F0A94E2F7482B4083EE89FF89808172
:100920000D8C02C0220F331F0A94E2F72095282372
:100930002083DF91CF911F910F91FF90EF90DF9077
:10094000BF90AF900895DC011C96ED91FC911D972E
:10095000E05CFF4F2191319180819181281B390BFF
:100960002F733070C9010895DC011C96ED91FC9144
:100970001D97E05CFF4F20813181E054F040DF01A2
:10098000AE5BBF4F8D919C9111972817390719F4D1
:100990002FEF3FEF07C08D919C91E80FF91F8081E9
:1009A000282F30E0C9010895DC011C96ED91FC91DF
:1009B0001D97E05CFF4F20813181E054F040DF0162
:1009C000AE5BBF4F8D919C9111972817390719F491
:1009D0002FEF3FEF10C08D919C911197E80FF91FF9
:1009E00020818D919C91119701968F739070119633
:1009F0009C938E9330E0C9010895FC01868597850C
:100A0000DC01A05CBF4FFC01EE5BFF4F2D913C91E0
:100A100011978081918128173907C1F70895CF93E5
:100A2000DF93EC01462FEE85FF85E05CFF4F808170
:100A30009181E054F040019660E470E00E949D08CE
:100A40009C01DF01AE5BBF4F8D919C9111972817E0
:100A50003907D1F3E05CFF4F80819181E054F04091
:100A6000E80FF91F4083EE85FF85E05CFF4F31837F
:100A70002083EE89FF89208181E090E00D8C02C007
:100A8000880F991F0A94E2F7282B208381E090E0D9
:100A9000DF91CF91089510926A021092690288EE58
:100AA00093E0A0E0B0E080936B0290936C02A0937F
:100AB0006D02B0936E0289E891E090936802809392
:100AC00067028FED91E0909374028093730283E24A
:100AD00092E0909376028093750285EC90E090937B
:100AE00078028093770284EC90E090937A0280936E
:100AF000790280EC90E090937C0280937B0281EC01
:100B000090E090937E0280937D0286EC90E090933B
:100B1000800280937F0284E08093810283E080934F
:100B2000820287E08093830285E08093840281E0E3
:100B3000809385020895CF92DF92EF92FF920F93F8
:100B40001F93CF93DF937C016B018A01C0E0D0E05B
:100B50000FC0D6016D916D01D701ED91FC9101900F
:100B6000F081E02DC7010995C80FD91F0150104031
:100B70000115110571F7CE01DF91CF911F910F91F2
:100B8000FF90EF90DF90CF900895EF92FF920F9338
:100B90001F938C01DC01ED91FC910190F081E02D1F
:100BA0006DE009957C01D801ED91FC910190F081F7
:100BB000E02DC8016AE009959C012E0D3F1DC90179
:100BC0001F910F91FF90EF900895CF93DF93DB017A
:100BD0000D900020E9F71197A61BB70BEC01E881F7
:100BE000F9810280F381E02DAD010995DF91CF916C
:100BF0000895EF92FF920F931F937C010E94E505E9
:100C00008C01C7010E94C505080F191FC8011F915B
:100C10000F91FF90EF900895AF92BF92CF92DF9225
:100C2000EF92FF920F931F93CF93DF935C016B01C1
:100C3000EE24FF24C0E0D0E010C0D501ED91FC917E
:100C400000811181C601BE010E945306682FC501B3
:100C5000F8010995E80EF91E2196F6018481958127
:100C6000C817D90750F3C701DF91CF911F910F919A
:100C7000FF90EF90DF90CF90BF90AF900895EF92EC
:100C8000FF920F931F937C010E940C068C01C701F9
:100C90000E94C5059C01200F311FC9011F910F91B2
:100CA000FF90EF900895FC01848195816817790782
:100CB00048F40190F081E02D309721F0E60FF71F06
:100CC0008081089580E008950F931F93CF93DF9361
:100CD000FC018B0141155105F9F061157105E1F039
:100CE000848195812817390718F0FB01108214C000
:100CF00041505040EC01C21BD30B4C175D0708F468
:100D0000EA0160817181620F731FC801AE010E9408
:100D1000CF0AC00FD11F1882DF91CF911F910F9181
:100D200008950F931F93CF93DF93EC018B016F5FB7
:100D30007F4F888199810E94F109009711F480E02A
:100D400005C0998388831B830A8381E0DF91CF915B
:100D50001F910F910895CF93DF93EC0188819981C2
:100D6000892B29F08A819B818617970760F4CE0131
:100D70000E949106882341F08C819D81892B19F472
:100D8000E881F981108281E0DF91CF910895CF93BE
:100D9000DF93EC0188819981009711F00E949909F5
:100DA000198218821D821C821B821A82DF91CF91C8
:100DB0000895EF92FF920F931F93CF93DF93EC016F
:100DC0007B018A01BA010E94AB06882321F4CE017F
:100DD0000E94C70607C01D830C8388819981B701D3
:100DE0000E94C80ACE01DF91CF911F910F91FF9011
:100DF000EF900895CF93DF93EC01198218821B8244
:100E00001A821D821C821E826115710551F0DB0160
:100E10000D900020E9F71197A61BB70BAD010E94BA
:100E2000D906DF91CF9108950F931F93182F092FA3
:100E30006115710559F0DB010D900020E9F711975C
:100E4000A61BB70BAD010E94D90602C00E94C706BF
:100E5000812F902F1F910F910895CF93DF93EC0175
:100E6000FB018617970761F060817181611571053B
:100E700029F0448155810E94D90602C00E94C7060C
:100E8000CE01DF91CF910895FC011182108213826F
:100E900012821582148216820E942D070895FC0189
:100EA000808191810E9499090895CF93DF930E94D8
:100EB000AC070E943A03C1ECD3E00E94D102209714
:100EC000E1F30E94C103F9CF1F920F920FB60F9268
:100ED00011242F933F938F939F93AF93BF93809150
:100EE0008A0290918B02A0918C02B0918D02309178
:100EF0008E020196A11DB11D232F2D5F2D3720F0ED
:100F00002D570196A11DB11D20938E0280938A0258
:100F100090938B02A0938C02B0938D0280918602F5
:100F200090918702A0918802B09189020196A11D3B
:100F3000B11D8093860290938702A0938802B0939C
:100F40008902BF91AF919F918F913F912F910F9007
:100F50000FBE0F901F901895789484B5826084BD61
:100F600084B5816084BD85B5826085BD85B58160AD
:100F700085BDEEE6F0E0808181608083E1E8F0E00D
:100F80001082808182608083808181608083E0E83C
:100F9000F0E0808181608083E1EBF0E0808184601B
:100FA0008083E0EBF0E0808181608083EAE7F0E01D
:100FB0008081846080838081826080838081816081
:100FC00080838081806880831092C1000895482FBB
:100FD00050E0CA0186569F4FFC0124914A575F4F4B
:100FE000FA0184918823C1F0E82FF0E0EE0FFF1F93
:100FF000E859FF4FA591B491662341F49FB7F89447
:101000008C91209582238C939FBF08959FB7F8946D
:101010008C91822B8C939FBF0895833071F0843024
:1010200028F48130A1F0823021F514C08630B1F06F
:101030008730D1F08430E9F404C0809180008F774C
:1010400003C0809180008F7D80938000089584B5D7
:101050008F7702C084B58F7D84BD08958091B000E4
:101060008F778093B00008958091B0008F7D80933A
:10107000B0000895FF920F931F93F62E482F50E073
:10108000CA0182559F4FFC012491CA0186569F4F89
:10109000FC0114914A575F4FFA0104910023C9F0F3
:1010A000222319F0822F0E940D08E02FF0E0EE0FAE
:1010B000FF1FEE58FF4FA591B4919FB7F894FF2002
:1010C00021F48C911095812302C08C91812B8C93FB
:1010D0009FBF1F910F91FF9008950F931F93482F6B
:1010E00050E0CA0182559F4FFC012491CA018656E7
:1010F0009F4FFC0104914A575F4FFA01149111234D
:1011000019F420E030E015C0222319F0822F0E944C
:101110000D08812F90E0880F991F84589F4FFC0184
:10112000A591B4918C9120E030E0802311F021E072
:1011300030E0C9011F910F91089597FB092E0726F2
:101140000AD077FD04D02ED006D000201AF4709576
:1011500061957F4F0895F6F7909581959F4F08957B
:10116000A1E21A2EAA1BBB1BFD010DC0AA1FBB1FAB
:10117000EE1FFF1FA217B307E407F50720F0A21B1D
:10118000B30BE40BF50B661F771F881F991F1A948A
:1011900069F760957095809590959B01AC01BD01B4
:1011A000CF010895AA1BBB1B51E107C0AA1FBB1F9B
:1011B000A617B70710F0A61BB70B881F991F5A95E3
:1011C000A9F780959095BC01CD010895EE0FFF1F02
:1011D0000590F491E02D0994CF93DF93BC01823008
:1011E000910510F462E070E0A0919102B09192023A
:1011F000ED01E0E0F0E040E050E021C0888199811D
:101200008617970769F48A819B81309719F0938339
:10121000828304C09093920280939102FE0134C0B5
:101220006817790738F44115510519F084179507A7
:1012300008F4AC01FE018A819B819C01E9012097A1
:10124000E9F641155105A9F1CA01861B970B0497D0
:1012500008F4BA01E0E0F0E02AC08D919C9111976A
:1012600084179507F9F46417750781F412968D9128
:101270009C911397309719F09383828304C09093C5
:10128000920280939102FD0132964FC0CA01861BE3
:10129000970BFD01E80FF91F6193719302978D93EE
:1012A0009C9343C0FD01828193819C01D9011097D9
:1012B000A1F680918F0290919002892B41F4809148
:1012C0002A0190912B019093900280938F0240917C
:1012D0002C0150912D014115510541F44DB75EB7D8
:1012E0008091280190912901481B590B20918F0270
:1012F0003091900224173507B0F4CA01821B930B7A
:101300008617970780F0AB014E5F5F4F84179507F4
:1013100050F0420F531F5093900240938F02F901F7
:101320006193719302C0E0E0F0E0CF01DF91CF91D3
:101330000895CF93DF93009709F450C0EC012297F2
:101340001B821A82A0919102B0919202109709F12A
:1013500040E050E0AC17BD0708F1BB83AA83FE0153
:1013600021913191E20FF31FAE17BF0779F48D91F0
:101370009C911197280F391F2E5F3F4F3983288387
:1013800012968D919C9113979B838A8341155105E9
:1013900071F4D0939202C093910220C012968D9165
:1013A0009C911397AD01009711F0DC01D3CFFA01A6
:1013B000D383C28321913191E20FF31FCE17DF0750
:1013C00069F488819981280F391F2E5F3F4FFA01F8
:1013D000318320838A819B8193838283DF91CF91A4
:1013E0000895A0E0B0E0E7EFF9E00C940B0B8C015E
:1013F000009729F4CB010E94EC088C01BAC09EEF43
:10140000E92E9FEFF92EE00EF11E5801A60EB71E31
:10141000AE14BF0408F4ABC08EEF882E8FEF982E69
:101420008A0C9B1CE7014881598146175707B8F081
:101430004530510508F49DC0CA01049786179707E7
:1014400008F497C042505040461B570BF40151839B
:10145000408379836883C5010E9499098AC06B0122
:10146000C41AD50AE0919102F0919202A0E0B0E096
:10147000C0E0D0E042C0E815F905A1F52081318136
:101480002C153D0578F1C90102968C159D05A8F033
:101490004E5F5F4F420F531FE701598348832281FC
:1014A0003381109729F013963C932E93129761C0C5
:1014B00030939202209391025CC0225030402C194C
:1014C0003D0931832083109729F01396FC93EE9306
:1014D000129704C0F0939202E0939102F701718396
:1014E000608347C080819181C817D90708F4EC0157
:1014F000DF01828193819C01F901309709F0BBCF14
:10150000400F511F80918F02909190028417950790
:10151000E9F4C617D707D0F420912C0130912D01A2
:101520002115310541F42DB73EB7809128019091E6
:101530002901281B390BA216B306C8F4B0929002F9
:10154000A0928F02E7017983688313C0CB010E94C8
:10155000EC08EC01009759F0F70140815181B80186
:101560000E94BF0AC8010E9499098E0102C000E0D2
:1015700010E0C801CDB7DEB7ECE00C94270BFB01FF
:10158000DC0102C001900D9241505040D8F70895FF
:10159000FB01DC0101900D920020E1F70895FB01B1
:1015A000DC014150504048F001900D920020C9F7F5
:1015B00001C01D9241505040E0F70895FA01A191F9
:1015C000B081009719F41097E1F0CD01DC01CD0155
:1015D0000D90002011F4C00113C0FB0121912223C2
:1015E00019F02015D9F7F3CFFB012191201519F43B
:1015F0001E92119606C02223C1F70D900020A1F77C
:10160000D001FA01A193B08308952F923F924F9297
:101610005F926F927F928F929F92AF92BF92CF9282
:10162000DF92EF92FF920F931F93CF93DF93CDB78B
:10163000DEB7CA1BDB0B0FB6F894DEBF0FBECDBF03
:1016400009942A88398848885F846E847D848C84D4
:101650009B84AA84B984C884DF80EE80FD800C81DD
:101660001B81AA81B981CE0FD11D0FB6F894DEBFC0
:101670000FBECDBFED01089510E0C8ECD0E004C06E
:10168000FE010E94E8082296CA3CD107C9F7F894E7
:02169000FFCF8A
:10169200003A00003000310032003300C2B73A3461
:1016A2003A443A5246523A483A523A3A57443A57E8
:1016B20044007365747570002000930200000B0CE7
:1016C2002A2A2A2A2A2A382C0000000000000000B8
:1016D2000000000000000000000000000000000008
:1016E20000000000000000000000000000000000F8
:1016F20000000000000000000000000000000000E8
:10170200000000000A0D0E131516191A1C232526B7
:10171200292A2C3234000000000F059B05A304D4B3
:0617220004B404FD040004
:00000001FF
